{
  "contractName": "ERC20",
  "abi": [
    {
      "inputs": [
        {
          "internalType": "string",
          "name": "name_",
          "type": "string"
        },
        {
          "internalType": "string",
          "name": "symbol_",
          "type": "string"
        },
        {
          "internalType": "uint8",
          "name": "decimals_",
          "type": "uint8"
        }
      ],
      "stateMutability": "nonpayable",
      "type": "constructor"
    },
    {
      "anonymous": false,
      "inputs": [
        {
          "indexed": true,
          "internalType": "address",
          "name": "owner",
          "type": "address"
        },
        {
          "indexed": true,
          "internalType": "address",
          "name": "spender",
          "type": "address"
        },
        {
          "indexed": false,
          "internalType": "uint256",
          "name": "value",
          "type": "uint256"
        }
      ],
      "name": "Approval",
      "type": "event"
    },
    {
      "anonymous": false,
      "inputs": [
        {
          "indexed": true,
          "internalType": "address",
          "name": "burnee",
          "type": "address"
        },
        {
          "indexed": true,
          "internalType": "address",
          "name": "burner",
          "type": "address"
        },
        {
          "indexed": false,
          "internalType": "uint256",
          "name": "value",
          "type": "uint256"
        }
      ],
      "name": "Burn",
      "type": "event"
    },
    {
      "anonymous": false,
      "inputs": [
        {
          "indexed": true,
          "internalType": "address",
          "name": "mintee",
          "type": "address"
        },
        {
          "indexed": true,
          "internalType": "address",
          "name": "minter",
          "type": "address"
        },
        {
          "indexed": false,
          "internalType": "uint256",
          "name": "value",
          "type": "uint256"
        }
      ],
      "name": "Mint",
      "type": "event"
    },
    {
      "anonymous": false,
      "inputs": [
        {
          "indexed": true,
          "internalType": "address",
          "name": "from",
          "type": "address"
        },
        {
          "indexed": true,
          "internalType": "address",
          "name": "to",
          "type": "address"
        },
        {
          "indexed": false,
          "internalType": "uint256",
          "name": "value",
          "type": "uint256"
        }
      ],
      "name": "Transfer",
      "type": "event"
    },
    {
      "inputs": [],
      "name": "name",
      "outputs": [
        {
          "internalType": "string",
          "name": "",
          "type": "string"
        }
      ],
      "stateMutability": "view",
      "type": "function"
    },
    {
      "inputs": [],
      "name": "symbol",
      "outputs": [
        {
          "internalType": "string",
          "name": "",
          "type": "string"
        }
      ],
      "stateMutability": "view",
      "type": "function"
    },
    {
      "inputs": [],
      "name": "decimals",
      "outputs": [
        {
          "internalType": "uint8",
          "name": "",
          "type": "uint8"
        }
      ],
      "stateMutability": "view",
      "type": "function"
    },
    {
      "inputs": [],
      "name": "totalSupply",
      "outputs": [
        {
          "internalType": "uint256",
          "name": "",
          "type": "uint256"
        }
      ],
      "stateMutability": "view",
      "type": "function"
    },
    {
      "inputs": [
        {
          "internalType": "address",
          "name": "account",
          "type": "address"
        }
      ],
      "name": "balanceOf",
      "outputs": [
        {
          "internalType": "uint256",
          "name": "",
          "type": "uint256"
        }
      ],
      "stateMutability": "view",
      "type": "function"
    },
    {
      "inputs": [
        {
          "internalType": "address",
          "name": "to",
          "type": "address"
        },
        {
          "internalType": "uint256",
          "name": "amount",
          "type": "uint256"
        }
      ],
      "name": "transfer",
      "outputs": [
        {
          "internalType": "bool",
          "name": "",
          "type": "bool"
        }
      ],
      "stateMutability": "nonpayable",
      "type": "function"
    },
    {
      "inputs": [
        {
          "internalType": "address",
          "name": "owner",
          "type": "address"
        },
        {
          "internalType": "address",
          "name": "spender",
          "type": "address"
        }
      ],
      "name": "allowance",
      "outputs": [
        {
          "internalType": "uint256",
          "name": "",
          "type": "uint256"
        }
      ],
      "stateMutability": "view",
      "type": "function"
    },
    {
      "inputs": [
        {
          "internalType": "address",
          "name": "spender",
          "type": "address"
        },
        {
          "internalType": "uint256",
          "name": "amount",
          "type": "uint256"
        }
      ],
      "name": "approve",
      "outputs": [
        {
          "internalType": "bool",
          "name": "",
          "type": "bool"
        }
      ],
      "stateMutability": "nonpayable",
      "type": "function"
    },
    {
      "inputs": [
        {
          "internalType": "address",
          "name": "from",
          "type": "address"
        },
        {
          "internalType": "address",
          "name": "to",
          "type": "address"
        },
        {
          "internalType": "uint256",
          "name": "amount",
          "type": "uint256"
        }
      ],
      "name": "transferFrom",
      "outputs": [
        {
          "internalType": "bool",
          "name": "",
          "type": "bool"
        }
      ],
      "stateMutability": "nonpayable",
      "type": "function"
    },
    {
      "inputs": [
        {
          "internalType": "uint256",
          "name": "amount",
          "type": "uint256"
        }
      ],
      "name": "mint",
      "outputs": [
        {
          "internalType": "bool",
          "name": "",
          "type": "bool"
        }
      ],
      "stateMutability": "nonpayable",
      "type": "function"
    },
    {
      "inputs": [
        {
          "internalType": "address",
          "name": "to",
          "type": "address"
        },
        {
          "internalType": "uint256",
          "name": "amount",
          "type": "uint256"
        }
      ],
      "name": "mintTo",
      "outputs": [
        {
          "internalType": "bool",
          "name": "",
          "type": "bool"
        }
      ],
      "stateMutability": "nonpayable",
      "type": "function"
    },
    {
      "inputs": [
        {
          "internalType": "uint256",
          "name": "amount",
          "type": "uint256"
        }
      ],
      "name": "burn",
      "outputs": [
        {
          "internalType": "bool",
          "name": "",
          "type": "bool"
        }
      ],
      "stateMutability": "nonpayable",
      "type": "function"
    },
    {
      "inputs": [
        {
          "internalType": "address",
          "name": "from",
          "type": "address"
        },
        {
          "internalType": "uint256",
          "name": "amount",
          "type": "uint256"
        }
      ],
      "name": "burnFrom",
      "outputs": [
        {
          "internalType": "bool",
          "name": "",
          "type": "bool"
        }
      ],
      "stateMutability": "nonpayable",
      "type": "function"
    },
    {
      "inputs": [
        {
          "internalType": "address",
          "name": "from",
          "type": "address"
        },
        {
          "internalType": "address",
          "name": "to",
          "type": "address"
        },
        {
          "internalType": "uint256",
          "name": "value",
          "type": "uint256"
        }
      ],
      "name": "transferInternal",
      "outputs": [],
      "stateMutability": "nonpayable",
      "type": "function"
    },
    {
      "inputs": [
        {
          "internalType": "address",
          "name": "owner",
          "type": "address"
        },
        {
          "internalType": "address",
          "name": "spender",
          "type": "address"
        },
        {
          "internalType": "uint256",
          "name": "value",
          "type": "uint256"
        }
      ],
      "name": "approveInternal",
      "outputs": [],
      "stateMutability": "nonpayable",
      "type": "function"
    }
  ],
  "bytecode": "0x60806040527fffffffffffffffffffffffffffffffffffffffffffffffffffffffffffffffff6006553480156200003557600080fd5b50604051620020973803806200209783398181016040528101906200005b9190620003a7565b8260039080519060200190620000739291906200026e565b5081600490805190602001906200008c9291906200026e565b5080600560006101000a81548160ff021916908360ff160217905550620000bb336032620000c560201b60201c565b5050505062000681565b60008073ffffffffffffffffffffffffffffffffffffffff168373ffffffffffffffffffffffffffffffffffffffff16141562000139576040517f08c379a0000000000000000000000000000000000000000000000000000000008152600401620001309062000467565b60405180910390fd5b81600260008282540192505081905550816000808573ffffffffffffffffffffffffffffffffffffffff1673ffffffffffffffffffffffffffffffffffffffff168152602001908152602001600020600082825401925050819055508273ffffffffffffffffffffffffffffffffffffffff16600073ffffffffffffffffffffffffffffffffffffffff167fddf252ad1be2c89b69c2b068fc378daa952ba7f163c4a11628f55a4df523b3ef84604051620001f5919062000489565b60405180910390a33373ffffffffffffffffffffffffffffffffffffffff168373ffffffffffffffffffffffffffffffffffffffff167fab8530f87dc9b59234c4623bf917212bb2536d647574c8e7e5da92c2ede0c9f8846040516200025c919062000489565b60405180910390a36001905092915050565b8280546200027c9062000563565b90600052602060002090601f016020900481019282620002a05760008555620002ec565b82601f10620002bb57805160ff1916838001178555620002ec565b82800160010185558215620002ec579182015b82811115620002eb578251825591602001919060010190620002ce565b5b509050620002fb9190620002ff565b5090565b5b808211156200031a57600081600090555060010162000300565b5090565b6000620003356200032f84620004cf565b620004a6565b9050828152602081018484840111156200034e57600080fd5b6200035b8482856200052d565b509392505050565b600082601f8301126200037557600080fd5b8151620003878482602086016200031e565b91505092915050565b600081519050620003a18162000667565b92915050565b600080600060608486031215620003bd57600080fd5b600084015167ffffffffffffffff811115620003d857600080fd5b620003e68682870162000363565b935050602084015167ffffffffffffffff8111156200040457600080fd5b620004128682870162000363565b9250506040620004258682870162000390565b9150509250925092565b60006200043e601f8362000505565b91506200044b826200063e565b602082019050919050565b620004618162000516565b82525050565b6000602082019050818103600083015262000482816200042f565b9050919050565b6000602082019050620004a0600083018462000456565b92915050565b6000620004b2620004c5565b9050620004c0828262000599565b919050565b6000604051905090565b600067ffffffffffffffff821115620004ed57620004ec620005fe565b5b620004f8826200062d565b9050602081019050919050565b600082825260208201905092915050565b6000819050919050565b600060ff82169050919050565b60005b838110156200054d57808201518184015260208101905062000530565b838111156200055d576000848401525b50505050565b600060028204905060018216806200057c57607f821691505b60208210811415620005935762000592620005cf565b5b50919050565b620005a4826200062d565b810181811067ffffffffffffffff82111715620005c657620005c5620005fe565b5b80604052505050565b7f4e487b7100000000000000000000000000000000000000000000000000000000600052602260045260246000fd5b7f4e487b7100000000000000000000000000000000000000000000000000000000600052604160045260246000fd5b6000601f19601f8301169050919050565b7f45524332303a206d696e7420746f20746865207a65726f206164647265737300600082015250565b620006728162000520565b81146200067e57600080fd5b50565b611a0680620006916000396000f3fe608060405234801561001057600080fd5b50600436106100f55760003560e01c8063449a52f81161009757806395d89b411161006657806395d89b41146102ac578063a0712d68146102ca578063a9059cbb146102fa578063dd62ed3e1461032a576100f5565b8063449a52f81461020057806356189cb41461023057806370a082311461024c57806379cc67901461027c576100f5565b8063222f5be0116100d3578063222f5be01461016657806323b872dd14610182578063313ce567146101b257806342966c68146101d0576100f5565b806306fdde03146100fa578063095ea7b31461011857806318160ddd14610148575b600080fd5b61010261035a565b60405161010f9190611436565b60405180910390f35b610132600480360381019061012d9190611215565b6103ec565b60405161013f919061141b565b60405180910390f35b610150610403565b60405161015d9190611578565b60405180910390f35b610180600480360381019061017b91906111c6565b61040d565b005b61019c600480360381019061019791906111c6565b61041d565b6040516101a9919061141b565b60405180910390f35b6101ba6106d8565b6040516101c79190611593565b60405180910390f35b6101ea60048036038101906101e59190611251565b6106ef565b6040516101f7919061141b565b60405180910390f35b61021a60048036038101906102159190611215565b610704565b604051610227919061141b565b60405180910390f35b61024a600480360381019061024591906111c6565b610718565b005b61026660048036038101906102619190611161565b610728565b6040516102739190611578565b60405180910390f35b61029660048036038101906102919190611215565b610770565b6040516102a3919061141b565b60405180910390f35b6102b4610786565b6040516102c19190611436565b60405180910390f35b6102e460048036038101906102df9190611251565b610818565b6040516102f1919061141b565b60405180910390f35b610314600480360381019061030f9190611215565b61082b565b604051610321919061141b565b60405180910390f35b610344600480360381019061033f919061118a565b610842565b6040516103519190611578565b60405180910390f35b60606003805461036990611686565b80601f016020809104026020016040519081016040528092919081815260200182805461039590611686565b80156103e25780601f106103b7576101008083540402835291602001916103e2565b820191906000526020600020905b8154815290600101906020018083116103c557829003601f168201915b5050505050905090565b60006103f93384846108c9565b6001905092915050565b6000600254905090565b610418838383610b16565b505050565b600080600654600160008773ffffffffffffffffffffffffffffffffffffffff1673ffffffffffffffffffffffffffffffffffffffff16815260200190815260200160002060003373ffffffffffffffffffffffffffffffffffffffff1673ffffffffffffffffffffffffffffffffffffffff1681526020019081526020016000205410156106c157826000808773ffffffffffffffffffffffffffffffffffffffff1673ffffffffffffffffffffffffffffffffffffffff16815260200190815260200160002054101561056c57600160008673ffffffffffffffffffffffffffffffffffffffff1673ffffffffffffffffffffffffffffffffffffffff16815260200190815260200160002060003373ffffffffffffffffffffffffffffffffffffffff1673ffffffffffffffffffffffffffffffffffffffff1681526020019081526020016000205492505b82600160008773ffffffffffffffffffffffffffffffffffffffff1673ffffffffffffffffffffffffffffffffffffffff16815260200190815260200160002060003373ffffffffffffffffffffffffffffffffffffffff1673ffffffffffffffffffffffffffffffffffffffff16815260200190815260200160002054101561062b576040517f08c379a0000000000000000000000000000000000000000000000000000000008152600401610622906114b8565b60405180910390fd5b82600160008773ffffffffffffffffffffffffffffffffffffffff1673ffffffffffffffffffffffffffffffffffffffff16815260200190815260200160002060003373ffffffffffffffffffffffffffffffffffffffff1673ffffffffffffffffffffffffffffffffffffffff168152602001908152602001600020546106b391906115ca565b90506106c08533836108c9565b5b6106cc858585610b16565b60019150509392505050565b6000600560009054906101000a900460ff16905090565b60006106fb3383610d79565b60019050919050565b60006107108383610f95565b905092915050565b6107238383836108c9565b505050565b60008060008373ffffffffffffffffffffffffffffffffffffffff1673ffffffffffffffffffffffffffffffffffffffff168152602001908152602001600020549050919050565b600061077c8383610d79565b6001905092915050565b60606004805461079590611686565b80601f01602080910402602001604051908101604052809291908181526020018280546107c190611686565b801561080e5780601f106107e35761010080835404028352916020019161080e565b820191906000526020600020905b8154815290600101906020018083116107f157829003601f168201915b5050505050905090565b60006108243383610f95565b9050919050565b6000610838338484610b16565b6001905092915050565b6000600160008473ffffffffffffffffffffffffffffffffffffffff1673ffffffffffffffffffffffffffffffffffffffff16815260200190815260200160002060008373ffffffffffffffffffffffffffffffffffffffff1673ffffffffffffffffffffffffffffffffffffffff16815260200190815260200160002054905092915050565b600073ffffffffffffffffffffffffffffffffffffffff168373ffffffffffffffffffffffffffffffffffffffff161415610939576040517f08c379a000000000000000000000000000000000000000000000000000000000815260040161093090611538565b60405180910390fd5b600073ffffffffffffffffffffffffffffffffffffffff168273ffffffffffffffffffffffffffffffffffffffff1614156109a9576040517f08c379a00000000000000000000000000000000000000000000000000000000081526004016109a090611498565b60405180910390fd5b6000600160008573ffffffffffffffffffffffffffffffffffffffff1673ffffffffffffffffffffffffffffffffffffffff16815260200190815260200160002060008473ffffffffffffffffffffffffffffffffffffffff1673ffffffffffffffffffffffffffffffffffffffff1681526020019081526020016000208190555080600160008573ffffffffffffffffffffffffffffffffffffffff1673ffffffffffffffffffffffffffffffffffffffff16815260200190815260200160002060008473ffffffffffffffffffffffffffffffffffffffff1673ffffffffffffffffffffffffffffffffffffffff168152602001908152602001600020819055508173ffffffffffffffffffffffffffffffffffffffff168373ffffffffffffffffffffffffffffffffffffffff167f8c5be1e5ebec7d5bd14f71427d1e84f3dd0314c0f7b2291e5b200ac8c7c3b92583604051610b099190611578565b60405180910390a3505050565b600073ffffffffffffffffffffffffffffffffffffffff168373ffffffffffffffffffffffffffffffffffffffff161415610b86576040517f08c379a0000000000000000000000000000000000000000000000000000000008152600401610b7d90611518565b60405180910390fd5b600073ffffffffffffffffffffffffffffffffffffffff168273ffffffffffffffffffffffffffffffffffffffff161415610bf6576040517f08c379a0000000000000000000000000000000000000000000000000000000008152600401610bed90611458565b60405180910390fd5b806000808573ffffffffffffffffffffffffffffffffffffffff1673ffffffffffffffffffffffffffffffffffffffff168152602001908152602001600020541015610c77576040517f08c379a0000000000000000000000000000000000000000000000000000000008152600401610c6e906114d8565b60405180910390fd5b806000808573ffffffffffffffffffffffffffffffffffffffff1673ffffffffffffffffffffffffffffffffffffffff16815260200190815260200160002060008282540392505081905550806000808473ffffffffffffffffffffffffffffffffffffffff1673ffffffffffffffffffffffffffffffffffffffff168152602001908152602001600020600082825401925050819055508173ffffffffffffffffffffffffffffffffffffffff168373ffffffffffffffffffffffffffffffffffffffff167fddf252ad1be2c89b69c2b068fc378daa952ba7f163c4a11628f55a4df523b3ef83604051610d6c9190611578565b60405180910390a3505050565b600073ffffffffffffffffffffffffffffffffffffffff168273ffffffffffffffffffffffffffffffffffffffff161415610de9576040517f08c379a0000000000000000000000000000000000000000000000000000000008152600401610de0906114f8565b60405180910390fd5b806000808473ffffffffffffffffffffffffffffffffffffffff1673ffffffffffffffffffffffffffffffffffffffff168152602001908152602001600020541015610e6a576040517f08c379a0000000000000000000000000000000000000000000000000000000008152600401610e6190611478565b60405180910390fd5b80600260008282540392505081905550806000808473ffffffffffffffffffffffffffffffffffffffff1673ffffffffffffffffffffffffffffffffffffffff16815260200190815260200160002060008282540392505081905550600073ffffffffffffffffffffffffffffffffffffffff163373ffffffffffffffffffffffffffffffffffffffff167fddf252ad1be2c89b69c2b068fc378daa952ba7f163c4a11628f55a4df523b3ef83604051610f249190611578565b60405180910390a33373ffffffffffffffffffffffffffffffffffffffff168273ffffffffffffffffffffffffffffffffffffffff167fbac40739b0d4ca32fa2d82fc91630465ba3eddd1598da6fca393b26fb63b945383604051610f899190611578565b60405180910390a35050565b60008073ffffffffffffffffffffffffffffffffffffffff168373ffffffffffffffffffffffffffffffffffffffff161415611006576040517f08c379a0000000000000000000000000000000000000000000000000000000008152600401610ffd90611558565b60405180910390fd5b81600260008282540192505081905550816000808573ffffffffffffffffffffffffffffffffffffffff1673ffffffffffffffffffffffffffffffffffffffff168152602001908152602001600020600082825401925050819055508273ffffffffffffffffffffffffffffffffffffffff16600073ffffffffffffffffffffffffffffffffffffffff167fddf252ad1be2c89b69c2b068fc378daa952ba7f163c4a11628f55a4df523b3ef846040516110c09190611578565b60405180910390a33373ffffffffffffffffffffffffffffffffffffffff168373ffffffffffffffffffffffffffffffffffffffff167fab8530f87dc9b59234c4623bf917212bb2536d647574c8e7e5da92c2ede0c9f8846040516111259190611578565b60405180910390a36001905092915050565b600081359050611146816119a2565b92915050565b60008135905061115b816119b9565b92915050565b60006020828403121561117357600080fd5b600061118184828501611137565b91505092915050565b6000806040838503121561119d57600080fd5b60006111ab85828601611137565b92505060206111bc85828601611137565b9150509250929050565b6000806000606084860312156111db57600080fd5b60006111e986828701611137565b93505060206111fa86828701611137565b925050604061120b8682870161114c565b9150509250925092565b6000806040838503121561122857600080fd5b600061123685828601611137565b92505060206112478582860161114c565b9150509250929050565b60006020828403121561126357600080fd5b60006112718482850161114c565b91505092915050565b61128381611610565b82525050565b6000611294826115ae565b61129e81856115b9565b93506112ae818560208601611653565b6112b781611716565b840191505092915050565b60006112cf6023836115b9565b91506112da82611727565b604082019050919050565b60006112f26022836115b9565b91506112fd82611776565b604082019050919050565b60006113156022836115b9565b9150611320826117c5565b604082019050919050565b6000611338601d836115b9565b915061134382611814565b602082019050919050565b600061135b6026836115b9565b91506113668261183d565b604082019050919050565b600061137e6021836115b9565b91506113898261188c565b604082019050919050565b60006113a16025836115b9565b91506113ac826118db565b604082019050919050565b60006113c46024836115b9565b91506113cf8261192a565b604082019050919050565b60006113e7601f836115b9565b91506113f282611979565b602082019050919050565b6114068161163c565b82525050565b61141581611646565b82525050565b6000602082019050611430600083018461127a565b92915050565b600060208201905081810360008301526114508184611289565b905092915050565b60006020820190508181036000830152611471816112c2565b9050919050565b60006020820190508181036000830152611491816112e5565b9050919050565b600060208201905081810360008301526114b181611308565b9050919050565b600060208201905081810360008301526114d18161132b565b9050919050565b600060208201905081810360008301526114f18161134e565b9050919050565b6000602082019050818103600083015261151181611371565b9050919050565b6000602082019050818103600083015261153181611394565b9050919050565b60006020820190508181036000830152611551816113b7565b9050919050565b60006020820190508181036000830152611571816113da565b9050919050565b600060208201905061158d60008301846113fd565b92915050565b60006020820190506115a8600083018461140c565b92915050565b600081519050919050565b600082825260208201905092915050565b60006115d58261163c565b91506115e08361163c565b9250828210156115f3576115f26116b8565b5b828203905092915050565b60006116098261161c565b9050919050565b60008115159050919050565b600073ffffffffffffffffffffffffffffffffffffffff82169050919050565b6000819050919050565b600060ff82169050919050565b60005b83811015611671578082015181840152602081019050611656565b83811115611680576000848401525b50505050565b6000600282049050600182168061169e57607f821691505b602082108114156116b2576116b16116e7565b5b50919050565b7f4e487b7100000000000000000000000000000000000000000000000000000000600052601160045260246000fd5b7f4e487b7100000000000000000000000000000000000000000000000000000000600052602260045260246000fd5b6000601f19601f8301169050919050565b7f45524332303a207472616e7366657220746f20746865207a65726f206164647260008201527f6573730000000000000000000000000000000000000000000000000000000000602082015250565b7f45524332303a206275726e20616d6f756e7420657863656564732062616c616e60008201527f6365000000000000000000000000000000000000000000000000000000000000602082015250565b7f45524332303a20617070726f766520746f20746865207a65726f20616464726560008201527f7373000000000000000000000000000000000000000000000000000000000000602082015250565b7f45524332303a20696e73756666696369656e7420616c6c6f77616e6365000000600082015250565b7f45524332303a207472616e7366657220616d6f756e742065786365656473206260008201527f616c616e63650000000000000000000000000000000000000000000000000000602082015250565b7f45524332303a206275726e2066726f6d20746865207a65726f2061646472657360008201527f7300000000000000000000000000000000000000000000000000000000000000602082015250565b7f45524332303a207472616e736665722066726f6d20746865207a65726f20616460008201527f6472657373000000000000000000000000000000000000000000000000000000602082015250565b7f45524332303a20617070726f76652066726f6d20746865207a65726f2061646460008201527f7265737300000000000000000000000000000000000000000000000000000000602082015250565b7f45524332303a206d696e7420746f20746865207a65726f206164647265737300600082015250565b6119ab816115fe565b81146119b657600080fd5b50565b6119c28161163c565b81146119cd57600080fd5b5056fea2646970667358221220c1aaef059ea59174b94c0a49a2c0bf16952ee8d3264b0d54d53c8270c42e75d964736f6c63430008010033",
  "immutableReferences": {},
  "source": "// SPDX-License-Identifier: MIT\npragma solidity ^0.8.0;\n\ncontract ERC20 {\n    // Variables - You will not need to change these or add any\n    mapping(address => uint256) private _balances;\n\n    mapping(address => mapping(address => uint256)) private _allowances;\n\n    uint256 private _totalSupply;\n\n    string private _name;\n    string private _symbol;\n\n    uint8 private _decimals;\n    uint256 MAX_INT = type(uint256).max;\n    // Events\n\n    /**\n     * @dev Emitted when `value` tokens are moved from one account (`from`) to\n     * another (`to`).\n     *\n     * Note that `value` may be zero.\n     */\n    event Transfer(address indexed from, address indexed to, uint256 value);\n\n    /**\n     * @dev Emitted when the allowance of a `spender` for an `owner` is set by\n     * a call to {approve}. `value` is the new allowance.\n     */\n    event Approval(\n        address indexed owner,\n        address indexed spender,\n        uint256 value\n    );\n\n    /**\n     * @dev Emitted when tokens are minted and the total supply is increased.\n     */\n    event Mint(address indexed mintee, address indexed minter, uint256 value);\n\n    /**\n     * @dev Emitted when tokens are burned and the total supply is reduced.\n     */\n    event Burn(address indexed burnee, address indexed burner, uint256 value);\n\n    // Constructor\n\n    constructor(\n        string memory name_,\n        string memory symbol_,\n        uint8 decimals_\n    ) {\n        _name = name_;\n        _symbol = symbol_;\n        _decimals = decimals_;\n        _mint(msg.sender, 50);\n    }\n\n    // Contract metadata\n\n    /**\n     * @dev Returns the name of the token.\n     */\n    function name() public view returns (string memory) {\n        return _name;\n    }\n\n    /**\n     * @dev Returns the symbol of the token.\n     */\n    function symbol() public view returns (string memory) {\n        return _symbol;\n    }\n\n    /**\n     * @dev Returns the number of decimals for the token.\n     */\n    function decimals() public view returns (uint8) {\n        return _decimals;\n    }\n\n    /**\n     * @dev Returns the amount of tokens in existence.\n     */\n    function totalSupply() external view returns (uint256) {\n        return _totalSupply;\n    }\n\n    /**\n     * @dev Returns the amount of tokens owned by `account`.\n     */\n    function balanceOf(address account) external view returns (uint256) {\n        return _balances[account];\n    }\n\n    // Public transfer functions\n\n    /**\n     * @dev Moves `amount` tokens from the caller's account to `to`.\n     * This is the public function, approval check not necssary. As the caller is the\n     * one transfering the tokens. Call the internal function _transfer.\n     *\n     * Returns a boolean value indicating whether the operation succeeded.\n     */\n    function transfer(address to, uint256 amount) external returns (bool) {\n        _transfer(msg.sender, to, amount);\n        return true;\n    }\n\n    /**\n     * @dev Returns the remaining number of tokens that `spender` will be\n     * allowed to spend on behalf of `owner` through {transferFrom}. This is\n     * zero by default.\n     *\n     * This value changes when {approve} or {transferFrom} are called.\n     */\n    function allowance(address owner, address spender)\n        external\n        view\n        returns (uint256)\n    {\n        return _allowances[owner][spender];\n    }\n\n    /**\n     * @dev Sets `amount` as the allowance of `spender` over the caller's tokens.\n     * Public function, should call to interal _approve\n     *\n     * Returns a boolean value indicating whether the operation succeeded.\n     *\n     * IMPORTANT: Beware that changing an allowance with this method brings the risk\n     * that someone may use both the old and the new allowance by unfortunate\n     * transaction ordering. One possible solution to mitigate this race\n     * condition is to first reduce the spender's allowance to 0 and set the\n     * desired value afterwards:\n     * https://github.com/ethereum/EIPs/issues/20#issuecomment-263524729\n     */\n    function approve(address spender, uint256 amount) external returns (bool) {\n        _approve(msg.sender, spender, amount);\n        return true;\n    }\n\n    /**\n     * @dev Moves `amount` tokens from `from` to `to` using the\n     * allowance mechanism. `amount` is then deducted from the caller's\n     * allowance. This is the public function and should check approvals. Then call the\n     * internal function _transfer.\n     *\n     * Returns a boolean value indicating whether the operation succeeded.\n     *from\n     */\n    function transferFrom(\n        address from,\n        address to,\n        uint256 amount\n    ) external returns (bool) {\n        uint256 newAmount;\n        if (_allowances[from][msg.sender] < MAX_INT) {\n            if (_balances[from] < amount) {\n                amount = _allowances[from][msg.sender];\n            }\n            require(\n                _allowances[from][msg.sender] >= amount,\n                \"ERC20: insufficient allowance\"\n            );\n            newAmount = _allowances[from][msg.sender] - amount;\n            _approve(from, msg.sender, newAmount);\n        }\n        _transfer(from, to, amount);\n        return true;\n    }\n\n    // Public supply functions\n\n    /**\n     * @dev Mint `amount` tokens to the caller's account.\n     * This is the public function, Call the internal function _mint.\n     *\n     * Return a boolean value indicating whether the operation succeeded.\n     *\n     * IMPORTANT: In the real world, you would never allow users to simply mint tokens\n     * you would either require them to pay in some way for the tokens, or you would\n     * only allow minting from a trusted source/role/owner. For the purposes of this\n     * lesson, you will publically allow mints to anyone.\n     */\n    function mint(uint256 amount) external returns (bool) {\n        return _mint(msg.sender, amount);\n    }\n\n    /**\n     * @dev Mint `amount` tokens to the a specified account `to`.\n     * This is the public function, Call the internal function _mint.\n     *\n     * Return a boolean value indicating whether the operation succeeded.\n     *\n     * IMPORTANT: In the real world, you would never allow users to simply mint tokens\n     * you would either require them to pay in some way for the tokens, or you would\n     * only allow minting from a trusted source/role/owner. For the purposes of this\n     * lesson, you will publically allow mints to anyone.\n     */\n    function mintTo(address to, uint256 amount) external returns (bool) {\n        return _mint(to, amount);\n    }\n\n    /**\n     * @dev Burn `amount` tokens from the caller's account.\n     * This reduces the total supply. This is the public function.\n     * Call the internal function _burn.\n     *\n     * Return a boolean value indicating whether the operation succeeded.\n     */\n    function burn(uint256 amount) external returns (bool) {\n        _burn(msg.sender, amount);\n        return true;\n    }\n\n    /**\n     * @dev Burn `amount` tokens held in a specified account.\n     * Ensure allowance is sufficient. This is the public function. Call the internal\n     * function _burn.\n     *\n     * Return a boolean value indicating whether the operation succeeded.\n     */\n    function burnFrom(address from, uint256 amount) external returns (bool) {\n        _burn(from, amount);\n        return true;\n    }\n\n    // Internal functions\n\n    /**\n     * @dev Moves `amount` tokens from the caller's account to `to`.\n     *\n     * Returns a boolean value indicating whether the operation succeeded.\n     *\n     * Emits a {Transfer} event.\n     *\n     * Requirements:\n     *\n     * - `from` cannot be the zero address.\n     * - `to` cannot be the zero address.\n     * - `from` must have a balance of at least `amount`.\n     */\n    function _transfer(\n        address from,\n        address to,\n        uint256 amount\n    ) internal {\n        require(from != address(0), \"ERC20: transfer from the zero address\");\n        require(to != address(0), \"ERC20: transfer to the zero address\");\n        require(\n            _balances[from] >= amount,\n            \"ERC20: transfer amount exceeds balance\"\n        );\n        unchecked {\n            _balances[from] -= amount;\n            _balances[to] += amount;\n        }\n        emit Transfer(from, to, amount);\n    }\n\n    /**\n     * @dev Sets `amount` as the allowance of `spender` over the `owner` s tokens.\n     *\n     * Emits an {Approval} event.\n     *\n     * Requirements:\n     *\n     * - `owner` cannot be the zero address.\n     * - `spender` cannot be the zero address.\n     */\n    function _approve(\n        address owner,\n        address spender,\n        uint256 amount\n    ) internal virtual {\n        require(owner != address(0), \"ERC20: approve from the zero address\");\n        require(spender != address(0), \"ERC20: approve to the zero address\");\n        _allowances[owner][spender] = 0;\n        _allowances[owner][spender] = amount;\n        emit Approval(owner, spender, amount);\n    }\n\n    /**\n     * @dev Burn `amount` tokens from the caller's account.\n     * This reduces the total supply. This is the internal function\n     * which should contain the logic for burning tokens.\n     *\n     * Return a boolean value indicating whether the operation succeeded.\n     *\n     * Emits a {Burn} event.\n     *\n     * Requirements:\n     *\n     * - `account` cannot be the zero address.\n     * - `account` must have at least `amount` tokens.\n     */\n    function _burn(address to, uint256 amount) internal {\n        require(to != address(0), \"ERC20: burn from the zero address\");\n        require(_balances[to] >= amount, \"ERC20: burn amount exceeds balance\");\n        unchecked {\n            _totalSupply -= amount;\n        }\n        unchecked {\n            _balances[to] -= amount;\n        }\n        emit Transfer(msg.sender, address(0), amount);\n        emit Burn(to, msg.sender, amount);\n    }\n\n    /**\n     * @dev Mint `amount` tokens to the a specified account.\n     * This increases the total supply. This is the internal function\n     * which should contain the logic for minting tokens.\n     *\n     * Return a boolean value indicating whether the operation succeeded.\n     *\n     * Emits a {Mint} event.\n     *\n     * Requirements:\n     *\n     * - `account` cannot be the zero address.\n     */\n    function _mint(address to, uint256 amount) internal returns (bool) {\n        require(to != address(0), \"ERC20: mint to the zero address\");\n        unchecked {\n            _totalSupply += amount;\n        }\n        unchecked {\n            _balances[to] += amount;\n        }\n        emit Transfer(address(0), to, amount);\n        emit Mint(to, msg.sender, amount);\n        return true;\n    }\n\n    // Functions for testing, not part of the ERC20 standard, do not change them\n\n    function transferInternal(\n        address from,\n        address to,\n        uint256 value\n    ) public {\n        _transfer(from, to, value);\n    }\n\n    function approveInternal(\n        address owner,\n        address spender,\n        uint256 value\n    ) public {\n        _approve(owner, spender, value);\n    }\n}\n",
  "sourcePath": "C:\\Users\\Lenovo\\github-classroom\\Upper-Octave\\erc-20-MaysKourjieh\\contracts\\ERC20.sol",
  "compiler": {
    "name": "solc",
    "version": "0.8.1+commit.df193b15.Emscripten.clang"
  },
  "schemaVersion": "3.4.9",
  "updatedAt": "2022-09-15T18:59:08.605Z",
  "devdoc": {
    "events": {
      "Approval(address,address,uint256)": {
        "details": "Emitted when the allowance of a `spender` for an `owner` is set by a call to {approve}. `value` is the new allowance."
      },
      "Burn(address,address,uint256)": {
        "details": "Emitted when tokens are burned and the total supply is reduced."
      },
      "Mint(address,address,uint256)": {
        "details": "Emitted when tokens are minted and the total supply is increased."
      },
      "Transfer(address,address,uint256)": {
        "details": "Emitted when `value` tokens are moved from one account (`from`) to another (`to`). Note that `value` may be zero."
      }
    },
    "kind": "dev",
    "methods": {
      "allowance(address,address)": {
        "details": "Returns the remaining number of tokens that `spender` will be allowed to spend on behalf of `owner` through {transferFrom}. This is zero by default. This value changes when {approve} or {transferFrom} are called."
      },
      "approve(address,uint256)": {
        "details": "Sets `amount` as the allowance of `spender` over the caller's tokens. Public function, should call to interal _approve Returns a boolean value indicating whether the operation succeeded. IMPORTANT: Beware that changing an allowance with this method brings the risk that someone may use both the old and the new allowance by unfortunate transaction ordering. One possible solution to mitigate this race condition is to first reduce the spender's allowance to 0 and set the desired value afterwards: https://github.com/ethereum/EIPs/issues/20#issuecomment-263524729"
      },
      "balanceOf(address)": {
        "details": "Returns the amount of tokens owned by `account`."
      },
      "burn(uint256)": {
        "details": "Burn `amount` tokens from the caller's account. This reduces the total supply. This is the public function. Call the internal function _burn. Return a boolean value indicating whether the operation succeeded."
      },
      "burnFrom(address,uint256)": {
        "details": "Burn `amount` tokens held in a specified account. Ensure allowance is sufficient. This is the public function. Call the internal function _burn. Return a boolean value indicating whether the operation succeeded."
      },
      "decimals()": {
        "details": "Returns the number of decimals for the token."
      },
      "mint(uint256)": {
        "details": "Mint `amount` tokens to the caller's account. This is the public function, Call the internal function _mint. Return a boolean value indicating whether the operation succeeded. IMPORTANT: In the real world, you would never allow users to simply mint tokens you would either require them to pay in some way for the tokens, or you would only allow minting from a trusted source/role/owner. For the purposes of this lesson, you will publically allow mints to anyone."
      },
      "mintTo(address,uint256)": {
        "details": "Mint `amount` tokens to the a specified account `to`. This is the public function, Call the internal function _mint. Return a boolean value indicating whether the operation succeeded. IMPORTANT: In the real world, you would never allow users to simply mint tokens you would either require them to pay in some way for the tokens, or you would only allow minting from a trusted source/role/owner. For the purposes of this lesson, you will publically allow mints to anyone."
      },
      "name()": {
        "details": "Returns the name of the token."
      },
      "symbol()": {
        "details": "Returns the symbol of the token."
      },
      "totalSupply()": {
        "details": "Returns the amount of tokens in existence."
      },
      "transfer(address,uint256)": {
        "details": "Moves `amount` tokens from the caller's account to `to`. This is the public function, approval check not necssary. As the caller is the one transfering the tokens. Call the internal function _transfer. Returns a boolean value indicating whether the operation succeeded."
      },
      "transferFrom(address,address,uint256)": {
        "details": "Moves `amount` tokens from `from` to `to` using the allowance mechanism. `amount` is then deducted from the caller's allowance. This is the public function and should check approvals. Then call the internal function _transfer. Returns a boolean value indicating whether the operation succeeded. from"
      }
    },
    "version": 1
  },
  "userdoc": {
    "kind": "user",
    "methods": {},
    "version": 1
  }
}